:04330000D5EF19F0FC
:0E3308004E82FACF25F0FBCF26F08BEF1AF0A5
:103318004E80D8CF33F0E8CF34F0E0CF35F0FACF95
:1033280036F0FBCF37F0E9CF38F0EACF39F0E1CF0C
:103338003AF0E2CF3BF0D9CF3CF0DACF3DF0F3CF13
:103348003EF0F4CF3FF0F6CF40F0F7CF41F0F8CFA2
:1033580042F0F5CF43F08CEF15F043C0F5FF42C0C3
:10336800F8FF41C0F7FF40C0F6FF3FC0F4FF3EC082
:10337800F3FF3DC0DAFF3CC0D9FF3BC0E2FF3AC0D3
:10338800E1FF39C0EAFF38C0E9FF37C0FBFF36C0AC
:10339800FAFF35C0E0FF34C0E8FF33C0D8FF4E90D5
:1033A80010004BEF1BF000983A4C1DB80BDC05EEF3
:1033B800022C0196004B00000F0E086E93880F0137
:1033C8005C89C284C286C298C28AC29CC09EC05010
:1033D800F80B0609C06EC2809E9C9D8C00017F512F
:1033E800020DAF0EF324F66E330EF420F76E0900CB
:1033F800F5CFBEFF0A00F5CFBFFFBD50F00B0A099D
:10340800BD6E9D84070ECD6E300ECD12000E0001EC
:10341800766F000E756F000176BF08D000017651F7
:1034280019E1100E0001755DD8B014D0600E0001CE
:103438007525D96E000E00017621DA6E000EDF6E5A
:103448000001754B762B000176BFF0D7000176514D
:1034580001E1E7D79D9A9D989D92A090F1EC1BF011
:1034680037EC1AF0FBD7F29A000E0001746F000EC9
:10347800736F000174BF08D00001745134E10F0E5E
:103488000001735DD8B02FD0000E00017325D96EEE
:10349800070E00017421DA6E600E00017325E16EDB
:1034A800000E00017421E26EE7500001706F050EF6
:1034B8000001716F0001D89070330001712FFAD7A5
:1034C800010E0001726F0001702B03D00001D8902B
:1034D80072370001702FFAD700017251DF6E0001B8
:1034E800734B742BC6D77FC070F0010E0001716F4B
:1034F8000001702B03D00001D89071370001702FA4
:10350800FAD70001715107010F6FF28A1200E9CF53
:1035180027F0EACF28F0E1CF29F0E2CF2AF0D9CF7F
:103528002BF0DACF2CF0F3CF2DF0F4CF2EF0F6CF2E
:103538002FF0F7CF30F0F8CF31F0F5CF32F005ECBF
:103548001CF0F2A406D0010E4426000E45224622A5
:103558004722F2A4F2B284EF15F032C0F5FF31C071
:10356800F8FF30C0F7FF2FC0F6FF2EC0F4FF2DC0C4
:10357800F3FF2CC0DAFF2BC0D9FF2AC0E2FF29C015
:10358800E1FF28C0EAFF27C0E9FF26C0FBFF25C0EE
:10359800FAFF4E921100246E4B50D8A42AD04D0445
:1035A800D8A406D04C50245CD8A002D0020E4D6E90
:1035B800020E4D18D8A413D04A50010D600EF32402
:1035C800D96E000EF420DA6E24C0DFFF100E4A60B8
:1035D80002D04A2A04D0000E4A6E000E4D6E4D509D
:1035E800D8A412004C50245CD8B01200010E4D6EC5
:1035F80012004A50010D600EF324D96E000EF4201B
:10360800DA6E24C0DFFF100E4A6002D04A2A120088
:10361800000E4A6E1200000E0001756F000E746FE6
:103628000001725100017311D8B42CD0010E0001B1
:10363800766F06D00001D890723773370001762B69
:10364800000173AFF7D70001D890743775370001C0
:1036580072510001705D0001735100017159D8A0C9
:103668000AD0000172510001705F0001735100011E
:10367800715B000174810001D890733372330001CB
:10368800762FE1D774C070F075C071F0120000EEAB
:1036980060F0100EEE6AE806FDE100EE44F0080E58
:1036A800EE6AE806FDE1320EF66E380EF76E000E91
:1036B800F86E0900F5CF7FF0280EF66E380EF76E1B
:1036C800000EF86E0900F5CF4CF00900F5CF4DF06B
:1036D8004E904E92000EF86E0001C7EF1BF077C0B7
:1036E80070F078C071F0000E0001736F0A0E726FEF
:1036F8000FEC1BF070C077F071C078F00DD09C0E05
:103708000001796FD70EE82EFED7792FFCD700F08D
:1037180000017707D8A078070001775100017811D8
:10372800D8B41200ECD700C070F0000E006E000193
:1037380070A302D0010E1200000170A902D0040E7D
:103748001200000170A502D0020E1200000170A73D
:1037580002D0030E1200000E1200000E0001706F5E
:103768000F0E0001706501D0120000017051010DAB
:10377800000EF324D96E070EF420DA6E000EDF6E09
:103788000001702BEDD7000E0001786F010E776FE6
:1037980073EC1BF015EC1CF016EC1CF0B1EC1BF0F4
:1037A80018EC1CF017EC1CF0E0EC19F0D5EF19F050
:1037B80000017F29070B00017F6F00017F51020D77
:1037C800AF0EF324F66E330EF420F76E0900F5CF32
:1037D800BEFF0A00F5CFBFFF120003D0DCEC1BF0E0
:1037E800120097EC1BF0010AD8B41200030AD8B4EF
:1037F800F5D7010AD8B41200070AD8B41200010A92
:1038080012009EA406D0C282000ECF6E000ECE6EAD
:103818009E949EAC1200C450CFEC1AF09E9C1200ED
:0B3828008001120012001200120003C9
:020000040020DA
:08000000FFFFFFFFFFFFFFFF00
:020000040030CA
:0E0000002308183CFFD1A0FF00000000000004
:00000001FF
